:100000000C9417010C9434010C9434010C943401B9
:100010000C9434010C9434010C9434010C9434018C
:100020000C9434010C9434010C94B3050C94EE053B
:100030000C9434010C9434010C9434010C9434016C
:100040000C9434010C9434010C9434010C9434015C
:100050000C9434010C9434010C9434010C9434014C
:100060000C9434010C94FB080C94D0080C943401CB
:100070000C9434010C9434010C9434010C9434012C
:100080000C9434010C9434010C9434010C9434011C
:100090000C9434010C9434010C9434010C9434010C
:1000A0000C9434010C9434010C94340150054D052A
:1000B0004A054705440541053E053B05380535051C
:1000C00032052F052C0529052605230520051D05CC
:1000D0001A051705140511050E050B05080505057C
:1000E0000205FF04FC04F904F604F304F004ED0433
:1000F000EA04E704E404E104DE04DB04D804D504E4
:10010000D204CF04CC04C904C604C304C004BD0493
:10011000BA04B704B404B104AE04AB04A804A50443
:10012000A2049F049C0499049604930490047365AC
:100130006E64207061636B61676500090920793125
:100140003A20000A78313A200009092079333A2010
:10015000000A78333A2000436F6E6E6563746564FD
:100160000009206D617070656420793A20000920D3
:100170006D617070656420783A200000010000AF66
:10018000011200020000C101430003000004020448
:1001900001030904080212020309041C02060303F6
:1001A00009042402080001C11201803601813612BF
:1001B00001000202000010C0167A040001010203CF
:1001C0000109024300020100C032090400000102DB
:1001D000020100052400100105240101010424028C
:1001E00006052406000107058203100040090401EA
:1001F00000020A0000000705030240000007058412
:10020000024000000403090412034A002E002000EB
:100210004600690065006E006500000006034D00A1
:1002200032000000080334003100300000001124C7
:100230001FBECFEFDAE0DEBFCDBF11E0A0E0B1E03E
:10024000E8E0F7E102C005900D92A031B107D9F7BF
:1002500011E0A0E1B1E001C01D92A838B107E1F7BB
:100260000E9480010C94820B0C940000DF92EF92AC
:10027000FF920F931F938C01D62EE12EFF24E7FCF3
:10028000FA94802F0E949B088E2D0E949B088D2D32
:100290000E949B08802F0E94E0038E2D0E94E003A5
:1002A0008D2D0E94E0038AE00E94E0031F910F91D0
:1002B000FF90EF90DF9008958091860190918701E3
:1002C00061E20E943601809184019091850160E491
:1002D0000E943601809182019091830163E20E9425
:1002E0003601809180019091810164E20E94360183
:1002F0008EE70E949B088EE291E00E9459070895C4
:100300002F923F924F925F926F927F928F929F9225
:10031000AF92BF92CF92DF92EF92FF920F931F9313
:10032000DF93CF93CDB7DEB72C970FB6F894DEBF2F
:100330000FBECDBF80E8809361001092610060E045
:1003400072EC81E090E00E946F080E94880387E5CC
:1003500091E00E94590754983F98809191008F7BBB
:1003600080939100809181008F7B809381008091A8
:1003700091008260809391008091810082608093DF
:1003800081008824992481E090E09C878B871A86DD
:10039000198618861F82442455241E82AA24BB2451
:1003A0009D838C83222433241B821A826624772423
:1003B0001982C59B85C0EB85FC85319729F4809017
:1003C00096009090970078C0609196007091970089
:1003D0006819790980E090E00E94BB0920E030E0D4
:1003E00040E05FE30E94490A0E948A097B018C0178
:1003F000F1E0653F7F070CF45FC08090960090901D
:100400009700940181E4E8168FE1F80684F0E9850D
:10041000FA85E330F1050CF04EC03196FA87E98792
:1004200081E090E098878F834424552445C0E98576
:10043000FA85EF2B09F43FC08F8198850197E9F485
:100440004114510499F481E591E00E945907B701E4
:10045000882777FD8095982F0E94CA07F092830124
:10046000E092820121E0422E512C26C091E04916F3
:10047000510409F518861F821FC0EF81F885EF2B04
:10048000D1F4F1E04F165104B1F489E491E00E94F7
:100490005907B701882777FD8095982F0E94CA07D2
:1004A000F0928101E09280011A8619864424552435
:1004B00081E08E8301C04901C59A1C861B8602C05B
:1004C000C099C09AB59B83C0EC81FD81319729F416
:1004D000A0908600B090870076C0609186007091F1
:1004E00087006A197B0980E090E00E94BB0920E048
:1004F00030E040E05FE30E94490A0E948A097B01E4
:100500008C01F1E0653F7F070CF45DC0A090860090
:10051000B0908700950181E4E8168FE1F8067CF041
:1005200093E0291631040CF04DC00894211C311CB5
:10053000E1E0F0E0FB83EA836624772444C02114E1
:10054000310409F43FC08A819B810197E9F4611469
:10055000710499F483E491E00E945907B701882758
:1005600077FD8095982F0E94CA07F0928701E0924C
:10057000860191E0692E712C26C091E06916710404
:1005800009F51B821A821FC0EA81FB81EF2BD1F48F
:10059000F1E06F167104B1F48BE391E00E9459070A
:1005A000B701882777FD8095982F0E94CA07F0929F
:1005B0008501E0928401222433246624772481E09B
:1005C000898301C05901B59A1D821C8202C0B0996D
:1005D000B09A9981992309F4ECCEEE81EE2309F4C7
:1005E000E8CE0E945C011E82E3CECF92DF92EF92B2
:1005F000FF920F931F93CF93DF939C0161157105B9
:10060000B9F5C0900201D09003012C193D09B90140
:10061000882777FD8095982F0E94BD097B018C016A
:1006200060910001709101016C197D09882777FDA7
:100630008095982F0E94BD099B01AC01C801B701AC
:100640000E94220920E030E04EEF52E40E94490A65
:100650000E948A09CB0177FF02C080E090E0EC01A4
:100660008038910514F0CFE7D0E08EE691E041C0EC
:100670006130710519F0C0E0D0E040C0C0900601C3
:10068000D09007012C193D09B901882777FD809585
:10069000982F0E94BD097B018C016091040170912B
:1006A00005016C197D09882777FD8095982F0E9498
:1006B000BD099B01AC01C801B7010E94220920E0DD
:1006C00030E04EEF52E40E94490A0E948A09CB01B1
:1006D00081589F4F8F3791051CF4CFE7D0E007C0BA
:1006E000EC018F3F910519F014F0CFEFD0E081E6D7
:1006F00091E00E945907CE010E943708CE01DF9198
:10070000CF911F910F91FF90EF90DF90CF900895C0
:1007100081E08093D70080EA8093D80082E189BD90
:1007200009B400FEFDCF80E98093D8001092E0006C
:1007300010921001109211018CE08093E2007894E5
:1007400008958091100108959FB7F8948091100149
:10075000882339F083E08093E9008091E80085FDEB
:1007600003C09FBF8FEF08952091F1008091E800B2
:1007700085FD03C08BE68093E8009FBF822F08951C
:100780009FB7F89480911001882329F083E080932B
:10079000E9008091F2009FBF0895809110018823A5
:1007A00071F09FB7F89483E08093E9002BE602C0D4
:1007B0002093E8008091E80085FDFACF9FBF08955F
:1007C000482F809110018823D9F12FB7F89484E045
:1007D0008093E90080911301882341F08091E80023
:1007E00085FD02C02FBF12C0109213019091E4004A
:1007F000975E34E08091E80085FD13C02FBF8091A3
:10080000E400891729F481E0809313018FEF0895A4
:10081000809110018823A1F02FB7F8943093E9005C
:10082000E9CF4093F1008091E80085FD03C08AE3A1
:100830008093E80085E0809312012FBF80E0089547
:100840008FEF0895282F80911001882351F09FB7D2
:10085000F89484E08093E9008091E80085FD03C06E
:100860009FBF8FEF08952093F1008091E80085FDF0
:1008700003C08AE38093E80085E0809312019FBF64
:1008800080E00895CF93DF93EC01809110018823DD
:1008900009F41CC13FB7F89484E08093E90080918B
:1008A0001301882309F407C18091E80085FD02C087
:1008B0003FBF0CC110921301FEC09091E400975EFF
:1008C0008091E80085FD13C03FBF8091E400891747
:1008D00021F481E080931301F9C0809110018823F5
:1008E00009F4F4C03FB7F8945093E900E9CF809140
:1008F000F2002A2F281B822F90E06817790708F44E
:10090000262F822F90E08134910508F0C6C08A5AC4
:100910009F4FFC01EE0FFF1F0590F491E02D09940D
:1009200089918093F10089918093F100899180935E
:10093000F10089918093F10089918093F100899170
:100940008093F10089918093F10089918093F10067
:1009500089918093F10089918093F100899180932E
:10096000F10089918093F10089918093F100899140
:100970008093F10089918093F10089918093F10037
:1009800089918093F10089918093F10089918093FE
:10099000F10089918093F10089918093F100899110
:1009A0008093F10089918093F10089918093F10007
:1009B00089918093F10089918093F10089918093CE
:1009C000F10089918093F10089918093F1008991E0
:1009D0008093F10089918093F10089918093F100D7
:1009E00089918093F10089918093F100899180939E
:1009F000F10089918093F10089918093F1008991B0
:100A00008093F10089918093F10089918093F100A6
:100A100089918093F10089918093F100899180936D
:100A2000F10089918093F10089918093F10089917F
:100A30008093F10089918093F10089918093F10076
:100A400089918093F10089918093F100899180933D
:100A5000F10089918093F10089918093F10089914F
:100A60008093F10089918093F10089918093F10046
:100A700089918093F10089918093F100899180930D
:100A8000F10089918093F10089918093F10089911F
:100A90008093F10089918093F10089918093F10016
:100AA0008091E80085FD02C0B093E800621B7109E7
:100AB0004093120104C054E0A0E4BAE345E061159C
:100AC000710509F0FACE3FBF80E001C08FEFDF91E2
:100AD000CF9108959FB7F89480911201882341F037
:100AE00084E08093E9008AE38093E8001092120189
:100AF0009FBF089580910C01089580910D01089584
:100B000080910E010895809111010895382F9FB7AB
:100B1000F89480911001882339F022E02093E900B5
:100B20008091E80085FD03C09FBF8FEF089581EAA3
:100B30008093F10080E28093F1001092F100109216
:100B4000F1001092F1001092F1002093F100109248
:100B5000F1003093F1001092F1008AE38093E800F5
:100B60009FBF80E008951F920F920FB60F9211243D
:100B70008F939F938091E1001092E100982F83FF63
:100B800011C01092E90081E08093EB001092EC001C
:100B900082E18093ED0088E08093F00010921001D4
:100BA0001092110192FF13C080911001882379F0F7
:100BB00080911201882359F081508093120188237B
:100BC00031F484E08093E9008AE38093E8009F9108
:100BD0008F910F900FBE0F901F9018951F920F923C
:100BE0000FB60F9211240F931F932F933F934F93A0
:100BF0005F936F937F938F939F93AF93BF93EF9385
:100C0000FF931092E9008091E80083FF3CC140917E
:100C1000F1003091F1008091F100682F70E0209197
:100C2000F100922F80E0682B792B8091F100A82FA2
:100C3000B0E02091F100922F80E0A82BB92B109109
:100C4000F1000091F10082EF8093E800363009F066
:100C50005AC022E831E0A90145505040F9013797C8
:100C6000859194918617970701F5FA0185919491E2
:100C70008A179B07D1F49A012E5F3F4FF9016591C6
:100C800074912E5F3F4FF9014491212F30E0902F56
:100C900080E0282B392B2F3F310519F010F02FEF72
:100CA00030E0241758F4422F09C0295F3F4F495FB5
:100CB0005F4FF1E02C3A3F0789F6E5C05EEF809187
:100CC000E800282F30E0C90185709070892BB9F3B6
:100CD00022FDDCC0342F413108F030E1232FCB015D
:100CE00006C0FC010196E491E093F100215022231B
:100CF000C1F7630F711D431B5093E8004423F9F6BD
:100D00003031E9F2C3C0353061F48EEF8093E800F2
:100D10008091E80080FFFCCF862F80688093E300FD
:100D2000B5C0393051F5442309F0ADC060931001CE
:100D300010921101109212018EEF8093E80085EA63
:100D400091E021E02093E900FC010196E491E09319
:100D5000EB00EE2369F0AC014F5F5F4FFC01849123
:100D60008093EC00CA010196FA0134913093ED00B2
:100D70002F5F253039F78EE181C0383061F440387B
:100D800009F081C08091E80080FFFCCF80911001C4
:100D90008093F10050C0313289F4413A09F073C0B8
:100DA0008091E80080FFFCCFE8E0F1E08191809342
:100DB000F10081E0EF30F807C9F73DC03032A1F40F
:100DC000413209F060C08091E80082FFFCCFE8E08A
:100DD000F1E08091F100819381E0EF30F807C9F7ED
:100DE0008BEF8093E80027C0323251F4413209F092
:100DF0004AC0609311018091E80080FFFCCF1BC0C6
:100E00003323E9F48091E80080FFFCCF423811F0F1
:100E100080E00DC0A093E9008091EB0090E025E018
:100E2000969587952A95E1F781701092E900809355
:100E3000F1001092F1008EEF8093E80027C031306E
:100E400011F0333001F54230F1F4672BE1F42A2F31
:100E50002F77822F81508430B0F48EEF8093E8009A
:100E60002093E900333079F089E18093EB0081E051
:100E700090E002C0880F991F2A95E2F78093EA005C
:100E80001092EA0003C081E28093EB00FF91EF91A2
:100E9000BF91AF919F918F917F916F915F914F9192
:100EA0003F912F911F910F910F900FBE0F901F90A8
:100EB00018951F93CF93DF93EC01FE0121961491B7
:100EC000112349F01A3019F48DE00E94E003812FBC
:100ED0000E94E003F2CFDF91CF911F910895982FE8
:100EE0008A3010F087E301C080E3890F0E94E0039D
:100EF00008951F93182F82958F700E946F07812F7E
:100F00008F700E946F071F9108951F93182F892FCC
:100F10000E947907812F0E9479071F9108950E94EE
:100F200079070895EF92FF920F931F93DF93CF936A
:100F3000CDB7DEB72B970FB6F894DEBF0FBECDBF8F
:100F40008E010F5F1F4F2BE0F80111922A95E9F7F0
:100F5000A8012AE030E00E94230B3BE0E32EF12CB5
:100F6000EC0EFD1EF8018081882311F00E94E00341
:100F70000F5F1F4F0E151F05A9F72B960FB6F8949C
:100F8000DEBF0FBECDBFCF91DF911F910F91FF90BC
:100F9000EF900895EF92FF920F931F93DF93CF93FB
:100FA000CDB7DEB72B970FB6F894DEBF0FBECDBF1F
:100FB0008E010F5F1F4F2BE0F80111922A95E9F780
:100FC000A8012AE030E00E94EF0A4CE0E42EF12C68
:100FD000EC0EFD1EF8018081882311F00E94E003D1
:100FE0000F5F1F4F0E151F05A9F72B960FB6F8942C
:100FF000DEBF0FBECDBFCF91DF911F910F91FF904C
:10100000EF900895EF92FF920F931F93DF93CF938A
:1010100000D000D000D0CDB7DEB78E010F5F1F4FDC
:1010200026E0F80111922A95E9F7B8014AE050E06C
:101030000E94480B56E0E52EF12CEC0EFD1EF80147
:101040008081882311F00E94E0030F5F1F4F0E156F
:101050001F05A9F726960FB6F894DEBF0FBECDBFC9
:10106000CF91DF911F910F91FF90EF900895EF9234
:10107000FF920F931F93DF93CF93CDB7DEB72797E0
:101080000FB6F894DEBF0FBECDBF8E010F5F1F4FAE
:1010900027E0F80111922A95E9F7B8014AE050E0FB
:1010A0000E94CE0A68E0E62EF12CEC0EFD1EF8013F
:1010B0008081882311F00E94E0030F5F1F4F0E15FF
:1010C0001F05A9F727960FB6F894DEBF0FBECDBF58
:1010D000CF91DF911F910F91FF90EF9008959B01A9
:1010E000AC01F89460E079E08DE390E00E94AC0AF6
:1010F00021503040404050405695479537952795B0
:101100003093CD002093CC0082E08093C80088E922
:101110008093C90086E08093CA0010923D018091BF
:101120003D0180933C0110927F0180917F0180936B
:101130007E0178940895282F90913C019F5F98320A
:1011400008F090E080913D018917E1F3E92FF0E08C
:10115000EC5EFE4F208390933C0188EB8093C900A6
:10116000089590917E0180917F019817D1F390911D
:101170007F019F5F903408F090E0E92FF0E0E25C9F
:10118000FE4F808190937F01089580917E01909120
:101190007F01891710F0891B0895805C891B0895D1
:1011A0001F920F920FB60F9211248F939F93EF937C
:1011B000FF9390913C0180913D01981721F488E9BB
:1011C0008093C9000FC090913D019F5F983208F055
:1011D00090E0E92FF0E0EC5EFE4F80818093CE003E
:1011E00090933D01FF91EF919F918F910F900FBED2
:1011F0000F901F9018951F920F920FB60F92112407
:101200002F938F939F93EF93FF932091CE00909114
:101210007E019F5F903408F090E080917F019817E5
:1012200039F0E92FF0E0E25CFE4F208390937E01DD
:10123000FF91EF919F918F912F910F900FBE0F9083
:101240001F9018950CD0EBC0E3D040F0DAD030F00E
:1012500021F45F3F19F0CCC0511115C1CFC0F0D0BF
:1012600098F39923C9F35523B1F3951B550BBB276D
:10127000AA2762177307840738F09F5F5F4F220F1A
:10128000331F441FAA1FA9F333D00E2E3AF0E0E813
:1012900030D091505040E695001CCAF729D0FE2F5F
:1012A00027D0660F771F881FBB1F261737074807F1
:1012B000AB07B0E809F0BB0B802DBF01FF279358A7
:1012C0005F4F2AF09E3F510568F092C0DCC05F3F3F
:1012D000ECF3983EDCF3869577956795B795F7958F
:1012E0009F5FC9F7880F911D9695879597F9089587
:1012F000E1E0660F771F881FBB1F62177307840723
:10130000BA0720F0621B730B840BBA0BEE1F88F731
:10131000E095089504D06894B111B5C0089598D0AF
:1013200088F09F5790F0B92F9927B751A0F0D1F0CE
:10133000660F771F881F991F1AF0BA95C9F712C058
:10134000B13081F09FD0B1E008959CC0672F782F15
:101350008827B85F39F0B93FCCF3869577956795C4
:10136000B395D9F73EF490958095709561957F4F30
:101370008F4F9F4F0895E89409C097FB3EF49095D6
:101380008095709561957F4F8F4F9F4F9923A9F05E
:10139000F92F96E9BB279395F695879577956795ED
:1013A000B795F111F8CFFAF4BB0F11F460FF1BC031
:1013B0006F5F7F4F8F4F9F4F16C0882311F096E9C4
:1013C00011C0772321F09EE8872F762F05C0662372
:1013D00071F096E8862F70E060E02AF09A95660F2B
:1013E000771F881FDAF7880F9695879597F90895E4
:1013F00097F99F6780E870E060E008959FEF80ECC8
:10140000089500240A94161617061806090608956A
:1014100000240A9412161306140605060895092ED0
:101420000394000C11F4882352F0BB0F40F4BF2B3F
:1014300011F460FF04C06F5F7F4F8F4F9F4F08957F
:1014400057FD9058440F551F59F05F3F71F0479575
:10145000880F97FB991F61F09F3F79F0879508955A
:10146000121613061406551FF2CF4695F1DF08C079
:10147000161617061806991FF1CF86957105610596
:1014800008940895E894BB2766277727CB0197F93E
:1014900008950BD0C4CFB5DF28F0BADF18F095233C
:1014A00009F0A6CFABCF1124EECFCADFA0F3959FF2
:1014B000D1F3950F50E0551F629FF001729FBB273B
:1014C000F00DB11D639FAA27F00DB11DAA1F649FE7
:1014D0006627B00DA11D661F829F2227B00DA11D9A
:1014E000621F739FB00DA11D621F839FA00D611D20
:1014F000221F749F3327A00D611D231F849F600D41
:10150000211D822F762F6A2F11249F5750408AF079
:10151000E1F088234AF0EE0FFF1FBB1F661F771F05
:10152000881F91505040A9F79E3F510570F060CF41
:10153000AACF5F3FECF3983EDCF3869577956795ED
:10154000B795F795E7959F5FC1F7FE2B880F911D23
:101550009695879597F90895A1E21A2EAA1BBB1BB1
:10156000FD010DC0AA1FBB1FEE1FFF1FA217B3076F
:10157000E407F50720F0A21BB30BE40BF50B661F85
:10158000771F881F991F1A9469F760957095809549
:1015900090959B01AC01BD01CF010895FB019F0116
:1015A000E8944230C4F04532B4F44A3029F497FB51
:1015B0001EF4909581959F4F642F77270E946E0BA4
:1015C000805D8A330CF0895D8193CB010097A1F790
:1015D00016F45DE251931082C9010C945E0BFA017E
:1015E000CF93FF93EF93223044F1253234F5C22F8D
:1015F000E894CA3049F497FB3EF490958095709535
:1016000061957F4F8F4F9F4F2C2F332744275527AE
:10161000FF93EF930E94AC0AEF91FF91605D6A33F4
:101620000CF0695D6193B901CA016050704080405F
:10163000904051F716F4CDE2C19310828F919F91A3
:10164000CF910C945E0BFA01CF93FF93EF9322306E
:10165000CCF02532BCF4C22F2C2F3327442755273A
:10166000FF93EF930E94AC0AEF91FF91605D6A33A4
:101670000CF0695D6193B901CA016050704080400F
:10168000904051F710828F919F91CF910C945E0BF7
:10169000FB019F01423074F0453264F4642F7727D8
:1016A0000E946E0B805D8A330CF0895D8193CB01C3
:1016B0000097A1F71082C9010C945E0BDC01FC01BC
:1016C000672F71917723E1F7329704C07C916D9376
:1016D00070836291AE17BF07C8F30895AA1BBB1BA6
:1016E00051E107C0AA1FBB1FA617B70710F0A61B22
:1016F000B70B881F991F5A95A9F780959095BC0143
:08170000CD010895F894FFCF1C
:101708007017D0077017D00700E10000000008002C
:00000001FF
